{
  "contractName": "Tickets",
  "abi": [
    {
      "inputs": [],
      "payable": false,
      "stateMutability": "nonpayable",
      "type": "constructor"
    },
    {
      "constant": true,
      "inputs": [],
      "name": "owner",
      "outputs": [
        {
          "internalType": "address",
          "name": "",
          "type": "address"
        }
      ],
      "payable": false,
      "stateMutability": "view",
      "type": "function"
    },
    {
      "constant": true,
      "inputs": [
        {
          "internalType": "uint256",
          "name": "",
          "type": "uint256"
        }
      ],
      "name": "tickets",
      "outputs": [
        {
          "internalType": "uint256",
          "name": "id",
          "type": "uint256"
        },
        {
          "internalType": "uint256",
          "name": "price",
          "type": "uint256"
        },
        {
          "internalType": "address",
          "name": "owner",
          "type": "address"
        }
      ],
      "payable": false,
      "stateMutability": "view",
      "type": "function"
    },
    {
      "constant": false,
      "inputs": [
        {
          "internalType": "uint256",
          "name": "_index",
          "type": "uint256"
        }
      ],
      "name": "buyTicket",
      "outputs": [],
      "payable": true,
      "stateMutability": "payable",
      "type": "function"
    }
  ],
  "bytecode": "0x6080604052600080546001600160a01b0319163317905534801561002257600080fd5b5060005b606481101561007057806001826064811061003d57fe5b600302015567016345785d8a00006001826064811061005857fe5b60030201600101819055508080600101915050610026565b506101e9806100806000396000f3fe6080604052600436106100345760003560e01c806350b447121461003957806367dd74ca1461008a5780638da5cb5b146100a9575b600080fd5b34801561004557600080fd5b506100636004803603602081101561005c57600080fd5b50356100da565b6040805193845260208401929092526001600160a01b031682820152519081900360600190f35b6100a7600480360360208110156100a057600080fd5b5035610107565b005b3480156100b557600080fd5b506100be6101a5565b604080516001600160a01b039092168252519081900360200190f35b600181606481106100e757fe5b60030201805460018201546002909201549092506001600160a01b031683565b606481108015610115575060015b61011e57600080fd5b60006001826064811061012d57fe5b60030201600201546001600160a01b03161461014857600080fd5b6001816064811061015557fe5b600302016001015434101561016957600080fd5b336001826064811061017757fe5b6003020160020160006101000a8154816001600160a01b0302191690836001600160a01b0316021790555050565b6000546001600160a01b03168156fea265627a7a723158201af0b20e7d7a58f650dad6352ac2e8dd8f8caa431cf1d94a35ef793e534f547b64736f6c63430005100032",
  "source": "//program for basic ticket contract system\n\npragma solidity >=0.4.22 <0.9.0;\n\ncontract Tickets {\n    uint256 constant TOTAL_TICKETS = 100;\n    address public owner = msg.sender;\n\n    struct Ticket {\n        uint256 id;\n        uint256 price;\n        address owner;\n    }\n\n    Ticket[TOTAL_TICKETS] public tickets;\n\n    constructor() public {\n        for(uint256 i = 0; i < TOTAL_TICKETS; i++) {\n            tickets[i].id = i;\n            tickets[i].price = 1e17; //0.1eth\n        }\n    }\n\n    //external = only people outside the contract can call it\n    //payable = must spend some eth to call the function\n    function buyTicket(uint256 _index) external payable {\n        require(_index < TOTAL_TICKETS && _index >= 0);\n        require(tickets[_index].owner == address(0x0));\n        require(msg.value >= tickets[_index].price); \n        tickets[_index].owner = msg.sender;\n    }\n\n}",
  "sourcePath": "/Users/lukehuang/dapp23-3/contracts/Tickets.sol",
  "compiler": {
    "name": "solc",
    "version": "0.5.16+commit.9c3226ce.Emscripten.clang"
  },
  "schemaVersion": "3.4.14",
  "updatedAt": "2023-06-12T05:46:57.108Z",
  "devdoc": {
    "methods": {}
  },
  "userdoc": {
    "methods": {}
  }
}